:020000040000FA
:100000000313831682309F001F3085000030870065
:10001000F03088000030890003138312C1309F0044
:1000200036239F230830003854239F230230542363
:100030000830043854230317831200308D0017232F
:10004000C5005830450203194F280317831230307A
:100050008C0001308D0008230317831233308C008D
:1000600002308D0008230317831235308C000330D3
:100070008D0008230317831230308C0004308D006C
:1000800008230317831232308C0005308D000823BB
:100090000317831235308C0006308D000823A10130
:1000A0008801CA01CB01CC019523952395231F1507
:1000B0001F19582883161E088312AE001E08AD00B3
:1000C0000310AE0C0310AD0C0318AE17C82230306D
:1000D000BC07BD07BE07E3220030210203197928BF
:1000E0000130210203197B280230210203197D28E7
:1000F0007E28D8217E2828227E2878220130880078
:10010000081AC929881A9729081B9C29881BA12924
:1001100002308800081AA629881AAB29081BB029C2
:10012000881BB52904308800081ABA29881ABF2903
:10013000081BA628881BA62808308800081AC4298E
:10014000881AD329081BA628881BCE290030230231
:1001500003196929003021020319B728013021024F
:100160000319C628023021020319172967294330D1
:1001700023020319C028443023020319C328C528C9
:100180000130A100C5280230A100672923302302D5
:10019000031902294330230203190829443023029A
:1001A00003190F29A00A013020020319DC280230AC
:1001B00020020319DF28E2282308CA001629230891
:1001C000CB0016292308CC002822C723031783124B
:1001D00058308C0000308D0008234A080317831222
:1001E0008C0001308D0008234B08031783128C000C
:1001F00002308D0008234C08031783128C00033053
:100200008D000823A001A101CA01CB01CC01162950
:10021000A0010130A100CA01CB01CC011629A00127
:100220000230A100CA01CB01CC0116296729233075
:100230002302031953294330230203195929443057
:10024000230203196029A00A0130200203192D2975
:10025000023020020319302933292308CA006729F4
:100260002308CB0067292308CC007822C723031773
:10027000831258308C0000308D0008234A08031781
:1002800083128C0004308D0008234B08031783125F
:100290008C0005308D0008234C08031783128C0056
:1002A00006308D000823A001A101CA01CB01CC01B9
:1002B0006729A0010130A100CA01CB01CC01672947
:1002C000A0010230A100CA01CB01CC016729003096
:1002D000A3006B2154283F083E0203186F294008F1
:1002E0003D02031874297C2941083C02031879292E
:1002F0007C2907108714962942083E020318812999
:10030000842903198429962943083D020318892961
:100310008C2903198C29962944083C020318912939
:100320009429031994299629071487100800B623E5
:10033000B6233130A300A628B623B6233230A3005B
:10034000A628B623B6233330A300A628B623B623A7
:100350003430A300A628B623B6233530A300A62840
:10036000B623B6233630A300A628B623B6233730EB
:10037000A300A628B623B6233830A300A628B623A8
:10038000B6233930A300A628B623B6234330A300F2
:10039000A628B623B6233030A300A628B623B6235A
:1003A0002330A300A628B623B6234430A300A628F2
:1003B0000030003E803854235430A200A614220896
:1003C00026233A30A200A614220826233E08A200C3
:1003D000A614220826233D08A200A61422082623DC
:1003E0003C08A200A614220826232030A200A6144E
:1003F000220826234D30A200A614220826233F08F7
:10040000A200A614220826234008A200A61422084F
:1004100026234108A200A614220826232030A20089
:10042000A614220826236D30A200A6142208262333
:100430004208A200A614220826234308A200A614FC
:10044000220826234408A200A61422082623080016
:100450000030003E803854234D30A200A6142208FC
:1004600026234130A200A614220826235830A200D9
:10047000A614220826234930A200A6142208262307
:100480004D30A200A614220826234F30A200A61445
:10049000220826232830A200A6142208262333305F
:1004A000A200A614220826236430A200A614220863
:1004B00026232930A200A614220826233A30A200BF
:1004C000A614220826232030A200A61422082623E0
:1004D0004A08A200A614220826234B08A200A6144C
:1004E000220826234C08A200A6142208262308006E
:1004F0000030003E803854234D30A200A61422085C
:1005000026234930A200A614220826234E30A2003A
:10051000A614220826234930A200A6142208262366
:100520004D30A200A614220826234F30A200A614A4
:10053000220826232830A200A614220826233330BE
:10054000A200A614220826236430A200A6142208C2
:1005500026232930A200A614220826233A30A2001E
:10056000A614220826232030A200A614220826233F
:100570004A08A200A614220826234B08A200A614AB
:10058000220826234C08A200A614220826230800CD
:100590002E08B1002D08B200B3016430B400B501DB
:1005A000B6010E243408BE003108AE003208AD009A
:1005B000B3010A30B400B501B6010E243408BD0001
:1005C0003108BC0008000317831201308D00172387
:1005D000BF000317831202308D001723C0000317DA
:1005E000831203308D001723C100031783120430D8
:1005F0008D001723C2000317831205308D001723C7
:10060000C3000317831206308D001723C4000800AF
:10061000031783168C130C1555308D00AA308D00EE
:100620008C148C18112B0C11031383120800031760
:1006300083168C130C14031783120C0803138312F4
:10064000080086159F2386119F230800A700F03914
:100650008600A618861421239F23A70E2708F039A9
:100660008600A618861421239F2308008316030101
:10067000860083128601AB23F030A600303086005E
:1006800021239F2321239F23212306122123283066
:1006900026230830262301302623063026238030E7
:1006A00026230C3026230800A61026230800A614B3
:1006B00026230800A800F13C031D612BEE30A800A2
:1006C0006E2B2808D13C031D682BEE30A8006E2B42
:1006D0002808BA3C031D6E2BDF30A800280808004C
:1006E0001630772B0130772B0230772B0330AB009D
:1006F00020305723AB0B782B0800AC00F039031DDA
:10070000852B20305723872BAC002C0E88232C08F8
:100710000F39AB00093C031C902B2B08303E922B69
:100720002B08373E572B000008000F30CD00CD0BB3
:10073000972B0800A530CD00CD0B9C2B0800063070
:10074000CD00CF30CE006400CE0BA32BCD0BA12B60
:10075000A92B640008003730CD00B530CE0064000E
:100760006400CE0BAF2BCD0BAD2B0800EF30CD00CE
:10077000E830CE006400BC2BBD2B6400CE0BBA2B3E
:10078000CD0BB82BC32BC42BC52B64000800A530A0
:10079000CD002930CE009330CF0064006400CF0B31
:1007A000CD2BCE0BCB2BCD0BC92B0800B730CD00FA
:1007B000BE30CE00EF30CF006400DE2BCF0BDC2B41
:1007C000CE0BDA2BCD0BD82BE52B640008003108BB
:1007D000B407031CED2B0130B507031CF12B0130CE
:1007E000B6070318B70A3208B507031CF92B013006
:1007F000B6070318B70A3308B6070318B70A080084
:10080000B701B409B509B609B7090030B607B40A8B
:100810000318B50A0318B60AE7230800BB01BA019A
:10082000B9013408B800B601B5013808B400002495
:100830003718262C3608B3003508B2003408B1004A
:10084000BB0A0318BA0A0318B90A132C3B08B400F0
:0A0850003A08B5003908B6000800A8
:02400E00723FFF
:00000001FF
