:020000040000FA
:100000000313831682309F001F308500F030870075
:10001000F03088000030890003138312C1309F0044
:100020001C298207203449344E3447345234453435
:1000300053344534203455345334553441345234D8
:1000400049344F3400348207283431342D3433346A
:1000500020346F34203441342934203423343D3467
:100060004D3445344E3455340034AA010030003E3E
:100070008038F524AB142A081120AB14C724AA0A2F
:100080002A08103C031D3B284030003E8038F524F0
:10009000AA012A082320AB14C724AA0A2A08103C64
:1000A000031D49280800820749344E34473452342E
:1000B00045345334453420344C34413420345334A3
:1000C00041344C34413420340034820728343134F4
:1000D0002034613420343434293420342034203422
:1000E00023343D344D3445344E3455340034AA0164
:1000F0000030003E8038F524AB142A085320AB149E
:10010000C724AA0A2A08103C031D7D284030003E5F
:100110008038F524AA012A086520AB14C724AA0A4E
:100120002A08103C031D8B280800820755345334DD
:1001300055344134523449344F34203441344334FB
:10014000453450345434413444344F3400348207FD
:100150005534533455344134523449344F342034B7
:10016000443445344E3445344734413444344F34B8
:1001700000348825AA010030003E8038F524AB14F5
:100180002A089520AB14C724AA0A2A08103C031D8C
:10019000C028080088250030003E8038F524AA01D8
:1001A0002A08A720AB14C724AA0A2A08103C031D5A
:1001B000D02808008207323420343D3420344D34B6
:1001C00045344E3455342034553453345534413449
:1001D000523449344F340034820731343D3443348F
:1001E0004C344134563445345334203433343D3464
:1001F000413443344334453453340034AA0100308D
:10020000003E8038F524AB142A08DA20AB14C7244A
:10021000AA0A2A08103C031D04294030003E8038F9
:10022000F524AA012A08EC20AB14C724AA0A2A083C
:10023000103C031D12290800031783122C308D0077
:10024000CF27B3005A303302031942290317831210
:1002500041308C0014308D00C027031783124130C9
:100260008C0015308D00C0270317831241308C009D
:1002700016308D00C0270317831241308C001730D1
:100280008D00C027A001A201A101A401A501A60122
:10029000A701A801D724402508300038F5244025BF
:1002A0000230F52408300438F524FE20013088009F
:1002B000081A1F2B881A242B081B292B881B2E2B6E
:1002C00002308800081A332B881A382B081B3D2B64
:1002D000881B422B04308800081A472B881A4C2BA5
:1002E000081B512B881B562B08308800081A5B2BE3
:1002F000881A602B081B652B881B6A2B0030230291
:100300000319192B0030200203199F290130200204
:100310000319BC29023020020319E6290330200208
:1003200003192F2A043020020319772A05302002EE
:1003300003199F2A063020020319F32A172B3230A3
:1003400023020319AC29313023020319B0293330B9
:1003500023020319B629BB2977200430A000BB294A
:100360006F230530A0004130B800BB294230B800EF
:100370006F230530A000172B0130A40701302402A1
:100380000319CB29023024020319CF290330240298
:100390000319D329D7292308A5006F23E5292308AA
:1003A000A6006F23E5292308A7006F23E52923086A
:1003B000A8006F2368258B25A401A501A601A7012C
:1003C000A801A001A201B801FE20172B31302302A1
:1003D0000319FB29323023020319052A3330230283
:1003E00003190F2A343023020319192A2330230258
:1003F0000319232A2C2A533025020319022A5330C9
:10040000A500042A4E30A5002C2A533026020319D9
:100410000C2A5330A6000E2A4E30A6002C2A533048
:1004200027020319162A5330A700182A4E30A700B6
:100430002C2A533028020319202A5330A800222ADC
:100440004E30A8002C2AA501A601A701A801A001F1
:10045000A201B801FE20172B10261824172B3130CB
:1004600023020319442A323023020319442A333069
:1004700023020319442A4130230203195B2A233043
:1004800023020319712A762A2308A2005830380261
:1004900003194F2A593038020319552A762A6F2337
:1004A0002308A2000130A000762A18240230A00000
:1004B0002308A200762A593038020319762A230825
:1004C000A20058303802031D702A5A3003178312D5
:1004D0008C002C308D00C0270130A0006F23762ABD
:1004E000762AA001A201B801FE20762A172B31300E
:1004F000230203198C2A3230230203198C2A333049
:10050000230203198C2A3430230203198C2A233046
:1005100023020319962A9E2A0630A0006F2323087F
:10052000A100A501A601A701A8019E2AFE20A00105
:10053000A101A501A601A701A8019E2A172B013040
:10054000A407013024020319AE2A02302402031941
:10055000B22A033024020319B62ABA2A2308A500B6
:100560006F23F22A2308A6006F23F22A2308A7008C
:100570006F23F22A2308A8006F23572557255725F4
:100580000B273918C92ACA206825A001FE20B80106
:10059000ED2AB9206825413038020319E82A0330D2
:1005A000A00035204030053E8038F5242030B200D0
:1005B000AB143208C7242030B200AB143208C72471
:1005C0002030B200AB143208C7245930B800ED2AED
:1005D00035200330A0005830B800A401A501A601C1
:1005E000A701A801172B0130A40701302402031929
:1005F000022B023024020319062B033024020319B4
:100600000A2B0E2B2308A5006F23172B2308A60007
:100610006F23172B2308A7006F23172B2308A8008D
:100620006F235725572557250B27CC26A4010030CB
:10063000A300871B1D2B07101E2B071456295725B7
:1006400057253130A3007E29572557253230A30086
:100650007E29572557253330A3007E295725572556
:100660004130A3007E29572557253430A3007E2929
:10067000572557253530A3007E2957255725363075
:10068000A3007E29572557254230A3007E295725F0
:1006900057253730A3007E29572557253830A3002A
:1006A0007E29572557253930A3007E295725572500
:1006B0004330A3007E29572557252A30A3007E29E1
:1006C000572557253030A3007E295725572523303D
:1006D000A3007E29572557254430A3007E290030EA
:1006E000003E8038F5244930B200AB143208C724EC
:1006F0004E30B200AB143208C7244730B200AB14FE
:100700003208C7245230B200AB143208C724453037
:10071000B200AB143208C7245330B200AB14320815
:10072000C7244530B200AB143208C7242030B200D1
:10073000AB143208C7243430B200AB143208C724DB
:100740002030B200AB143208C7244430B200AB14DE
:100750003208C7244930B200AB143208C7244730EE
:10076000B200AB143208C7245430B200AB143208C4
:10077000C7244F30B200AB143208C7245330B20044
:10078000AB143208C7244030003E8038F5242030B6
:10079000B200AB143208C7242030B200AB143208C8
:1007A000C7242030B200AB143208C7242030B20076
:1007B000AB143208C7242030B200AB143208C7246F
:1007C0002508B200AB143208C7242608B200AB14C7
:1007D0003208C7242708B200AB143208C7242808FF
:1007E000B200AB143208C7242030B200AB14320878
:1007F000C7242030B200AB143208C7242030B20026
:10080000AB143208C7242030B200AB143208C7241E
:100810002030B200AB143208C7242030B200AB1431
:100820003208C7242030B200AB143208C7240800B5
:1008300074260030003E8038F5244330B200AB14FB
:100840003208C7244F30B200AB143208C7244E30F0
:10085000B200AB143208C7244630B200AB143208E1
:10086000C7242830B200AB143208C7243130B2009C
:10087000AB143208C7242D30B200AB143208C724A1
:100880003430B200AB143208C7242930B200AB14A4
:100890003208C7242030B200AB143208C7244D30D0
:1008A000B200AB143208C7244530B200AB14320892
:1008B000C7244E30B200AB143208C7245530B20002
:1008C000AB143208C7243D30B200AB143208C72441
:1008D0002330B200AB143208C7244030003E8038C9
:1008E000F5245530B200AB143208C7247330B2007F
:1008F000AB143208C7243A30B200AB143208C72414
:100900002208B200AB143208C7242030B200AB1466
:100910003208C7243130B200AB143208C72425088E
:10092000B200AB143208C7242030B200AB14320836
:10093000C7243230B200AB143208C7242608B200F4
:10094000AB143208C7242030B200AB143208C724DD
:100950003330B200AB143208C7242708B200AB14FE
:100960003208C7242030B200AB143208C724343018
:10097000B200AB143208C7242808B200AB14320806
:10098000C724080086154025861140250800AC00C4
:10099000F0398600AB188614C2244025AC0E2C0812
:1009A000F0398600AB188614C2244025080083164F
:1009B00003018600831286014C25F030AB003030F5
:1009C0008600C2244025C2244025C2240612C22427
:1009D0002830C7240830C7240130C7240630C72474
:1009E0008030C7240C30C7240800AB10C72408008F
:1009F000AB14C7240800AD00F13C031D022DEE30FE
:100A0000AD000F2D2D08D13C031D092DEE30AD009A
:100A10000F2D2D08BA3C031D0F2DDF30AD002D0822
:100A200008001630182D0130182D0230182D033013
:100A3000B0002030F824B00B192D0800B100F039B7
:100A4000031D262D2030F824282DB100310E292534
:100A500031080F39B000093C031C312D3008303EFD
:100A6000332D3008373EF82C000008000F30BA0054
:100A7000BA0B382D0800A530BA00BA0B3D2D08007E
:100A80000630BA00CF30BB006400BB0B442DBA0B5C
:100A9000422D4A2D640008003730BA00B530BB0043
:100AA00064006400BB0B502DBA0B4E2D0800EF30D4
:100AB000BA00E830BB0064005D2D5E2D6400BB0B06
:100AC0005B2DBA0B592D642D652D662D6400080031
:100AD000A530BA002930BB009330BC00640064002C
:100AE000BC0B6E2DBB0B6C2DBA0B6A2D0800B730FA
:100AF000BA00BE30BB00EF30BC0064007F2DBC0BE1
:100B00007D2DBB0B7B2DBA0B792D862D6400080043
:100B10000130F52408003130220203199C2D3230B7
:100B200022020319B92D333022020319D62D413088
:100B300022020319F32D0F2E2508031783128C00B0
:100B400000308D00C0272608031783128C00013067
:100B50008D00C0272708031783128C0002308D00F8
:100B6000C0272808031783128C0003308D00C0278C
:100B70000F2E2508031783128C0004308D00C02728
:100B80002608031783128C0005308D00C027270824
:100B9000031783128C0006308D00C0272808031726
:100BA00083128C0007308D00C0270F2E25080317F5
:100BB00083128C0008308D00C0272608031783128B
:100BC0008C0009308D00C0272708031783128C0082
:100BD0000A308D00C0272808031783128C000B30C1
:100BE0008D00C0270F2E2508031783128C001430A8
:100BF0008D00C0272608031783128C0015308D0046
:100C0000C0272708031783128C0016308D00C027D9
:100C10002808031783128C0017308D00C0270800A6
:100C20003130220203191D2E3230220203193A2ECE
:100C3000333022020319572E732E2508031783120F
:100C40008C0018308D00C0272608031783128C00F3
:100C500019308D00C0272708031783128C001A3023
:100C60008D00C0272808031783128C001B308D00CD
:100C7000C027732E2508031783128C001C308D00AB
:100C8000C0272608031783128C001D308D00C02753
:100C90002708031783128C001E308D00C0272808F8
:100CA000031783128C001F308D00C027732E250878
:100CB000031783128C0020308D00C02726080317ED
:100CC00083128C0021308D00C02727080317831260
:100CD0008C0022308D00C0272808031783128C0057
:100CE00023308D00C0270800313022020319812EE5
:100CF0003230220203199A2E333022020319B32E06
:100D0000CB2E0317831218308D00CF27A5000317B1
:100D1000831219308D00CF27A600031783121A30D3
:100D20008D00CF27A700031783121B308D00CF271C
:100D3000A800CB2E031783121C308D00CF27A500EF
:100D4000031783121D308D00CF27A60003178312CF
:100D50001E308D00CF27A700031783121F308D0090
:100D6000CF27A800CB2E0317831220308D00CF276A
:100D7000A5000317831221308D00CF27A60003178B
:100D8000831222308D00CF27A70003178312233050
:100D90008D00CF27A8000800742631302102031DE2
:100DA000D82E53302502031DD82EB9206825022FD6
:100DB00032302102031DE32E53302602031DE32EA1
:100DC000B9206825022F33302102031DEE2E533047
:100DD0002702031DEE2EB9206825022F3430210290
:100DE000031DF92E53302802031DF92EB920682562
:100DF000022F41302202031D002FB9206825022F47
:100E0000CA206825FE20A001A501A601A701A8010E
:100E1000A201A10108000317831200308D00CF2723
:100E2000B4000317831201308D00CF27B5000317DC
:100E3000831202308D00CF27B600031783120330D0
:100E40008D00CF27B70034082502031D362F350843
:100E50002602031D362F36082702031D362F3708BA
:100E60002802031D362F3130A200BB2F0317831237
:100E700004308D00CF27B4000317831205308D0096
:100E8000CF27B5000317831206308D00CF27B60099
:100E90000317831207308D00CF27B70034082502CF
:100EA000031D612F35082602031D612F3608270216
:100EB000031D612F37082802031D612F3230A20065
:100EC000BB2F0317831208308D00CF27B400031700
:100ED000831209308D00CF27B500031783120A3023
:100EE0008D00CF27B600031783120B308D00CF275C
:100EF000B70034082502031D8C2F35082602031D78
:100F00008C2F36082702031D8C2F37082802031D5B
:100F10008C2F3330A200BB2F0317831214308D00A7
:100F2000CF27B4000317831215308D00CF27B500EB
:100F30000317831216308D00CF27B60003178312D4
:100F400017308D00CF27B70034082502031DB92FB5
:100F500035082602031DB92F36082702031DB92FB5
:100F600037082802031DB92F4130A2000130B90013
:100F7000BB2FA201B901B401B501B601B701080048
:100F8000031783168C130C1555308D00AA308D0075
:100F90008C148C18C92F0C1103138312080003172B
:100FA00083168C130C14031783120C08031383127B
:020FB000080037
:02400E00723FFF
:00000001FF
